:1000000015C6000044C6000042C6000040C60000FD
:100010003EC600003CC600003AC6000038C60000DC
:1000200036C6000034C6000032C6000030C60000EC
:100030002EC600002CC600002AC6000028C60000FC
:1000400026C600000C94D52822C6000020C6000059
:100050001EC600001CC600001AC600000C943830F2
:1000600016C600000C94132D0C94492D10C60000E8
:100070000EC600000CC600000AC6000008C600003C
:100080000C94022904C6000002C6000000C600004D
:10009000FEC50000FCC50000FAC50000F8C5000060
:1000A000F6C50000F4C500000C942F29F0C500002F
:1000B000EEC50000ECC50000EAC500000C945C2908
:1000C000E6C50000E4C50000E2C50000E0C5000090
:1000D000DEC50000DCC50000DAC50000D8C50000A0
:1000E000D6C50000D711DA11E711F71101120B1272
:1000F0002E1263127112741270188B18B418C4186F
:10010000D418DF18231970197A198E2694269E2682
:10011000AC26AE26B426BE26CC26DE26E0269231BC
:1001200097319C31A631B0312932BA31C231CA314E
:10013000D431DE31E831F731013229320B32153258
:100140001F324A324D323C324032463284325132D2
:1001500055325B325F32633269326D3271328432D2
:1001600077327B327F3205A84CCDB2D44EB93836C7
:10017000A9020C50B9918688083CA6AAAA2ABE00FA
:100180000000803F00000000003E5B4F5B3E3E6B86
:100190004F6B3E1C3E7C3E1C183C7E3C181C577D21
:1001A000571C1C5E7F5E1C00183C1800FFE7C3E76D
:1001B000FF0018241800FFE7DBE7FF30483A060E7F
:1001C0002629792926407F050507407F05253F5AC6
:1001D0003CE73C5A7F3E1C1C08081C1C3E7F142236
:1001E0007F22145F5F005F5F06097F017F006689E1
:1001F000956A606060606094A2FFA29408047E0427
:100200000810207E201008082A1C08081C2A08084C
:100210001E101010100C1E0C1E0C30383E3830060C
:100220000E3E0E06000000000000005F0000000708
:10023000000700147F147F14242A7F2A1223130836
:10024000646236495620500008070300001C224112
:10025000000041221C002A1C7F1C2A08083E0808B6
:100260000080703000080808080800006060002066
:10027000100804023E5149453E00427F4000724949
:100280004949462141494D331814127F10274545ED
:1002900045393C4A49493141211109073649494903
:1002A00036464949291E0000140000004034000071
:1002B00000081422411414141414004122140802DA
:1002C000015909063E415D594E7C1211127C7F494D
:1002D0004949363E414141227F4141413E7F4949A2
:1002E00049417F090909013E414151737F080808CE
:1002F0007F00417F41002040413F017F081422419F
:100300007F404040407F021C027F7F0408107F3EF8
:100310004141413E7F090909063E4151215E7F0965
:10032000192946264949493203017F01033F4040CC
:10033000403F1F2040201F3F4038403F63140814B7
:100340006303047804036159494D43007F414141EF
:100350000204081020004141417F040201020440D0
:1003600040404040000307080020545478407F2854
:100370004444383844444428384444287F3854544A
:10038000541800087E090218A4A49C787F0804046D
:100390007800447D40002040403D007F102844000C
:1003A00000417F40007C047804787C08040478389D
:1003B00044444438FC1824241818242418FC7C08CD
:1003C000040408485454542404043F44243C40404A
:1003D000207C1C2040201C3C4030403C44281028FD
:1003E000444C9090907C4464544C44000836410046
:1003F0000000770000004136080002010204023CC0
:100400002623263C1EA1A161123A4040207A38548E
:100410005455592155557941225454784221555407
:10042000784020545579400C1E527212395555555A
:1004300059395454545939555454580000457C4145
:100440000002457D420001457C407D1211127DF085
:10045000282528F07C545545002054547C547C0AAF
:10046000097F4932494949323A4444443A324A4878
:1004700048303A4141217A3A42402078009DA0A07C
:100480007D3D4242423D3D4040403D3C24FF2424CE
:10049000487E4943662B2FFC2F2BFF0929F620C0ED
:1004A000887E090320545479410000447D4130483E
:1004B000484A32384040227A007A0A0A727D0D1981
:1004C000317D2629292F28262929292630484D40E3
:1004D00020380808080808080808382F10C8ACBADF
:1004E0002F102834FA00007B000008142A1422225E
:1004F000142A14085500550055AA55AA55AAFF55A7
:10050000FF55FF000000FF00101010FF001414142E
:10051000FF001010FF00FF1010F010F0141414FC76
:10052000001414F700FF0000FF00FF1414F404FC93
:10053000141417101F10101F101F1414141F001074
:100540001010F0000000001F101010101F101010ED
:1005500010F010000000FF101010101010101010FC
:10056000FF10000000FF140000FF00FF00001F103C
:10057000170000FC04F414141710171414F404F4F6
:100580000000FF00F714141414141414F700F714E7
:100590001414171410101F101F141414F414101036
:1005A000F010F000001F101F0000001F14000000DA
:1005B000FC140000F010F01010FF10FF141414FFD2
:1005C000141010101F00000000F010FFFFFFFFFFCD
:1005D000F0F0F0F0F0FFFFFF0000000000FFFF0F61
:1005E0000F0F0F0F3844443844FC4A4A4A347E0205
:1005F000020606027E027E02635549416338444486
:100600003C04407E201E2006027E020299A5E7A53A
:10061000991C2A492A1C4C7201724C304A4D4D30AB
:100620003048784830BC625A463D3E494949007ED0
:100630000101017E2A2A2A2A2A44445F4444405167
:100640004A444040444A51400000FF0103E080FF1B
:10065000000008086B6B083612362436060F090FA7
:1006600006000018180000001010003040FF0101C3
:10067000001F01011E00191D1712003C3C3C3C00EC
:100680000000000004E010021C07123732292D2957
:10069000252B3900010310E110031D07062E2C291C
:1006A0002D2E2E373F0000021013800A298064028D
:1006B0002A040000007F2B040000007F022A0400AF
:1006C00000007F2B040000009F022A04000200812A
:1006D0002B04000100A00F0180961180FFB10301DF
:1006E0002C2DB203012C2DB306012C2D012C2DB481
:1006F0000107C003A20284C101C5C2020A00C302ED
:100700008A2AC4028AEEC5010E20003601C83A01C9
:10071000054D6F746F72203120262032004D6F74AA
:100720006F722032004D6F746F722031005365720A
:10073000766F20312026203200536572766F20328A
:1007400000536572766F2031005374657070657266
:10075000204D6F746F727300536572766F73004D26
:100760006F746F7273005573657220446566696EAD
:100770006564004F746865727300446967697461E9
:100780006C32416E616C6F6720436F6E7665727478
:10079000657200436F6D6D756E69636174696F6E2C
:1007A0000044617461204C6F67004D696E69204F91
:1007B0007363696C6C6F73636F70650053656E7300
:1007C000696E6700436F6E74726F6C00000000000A
:1007D000000000000000000000FC0000000000001D
:1007E000001FFFF0000000000001FFFFFE000000FE
:1007F000000007FFFFFFC0000000001FFFFFFFF029
:10080000000000007FFFFFFFF800000000FFFFFF77
:10081000FFFE00000003FFFC007FFF00000007FF59
:10082000C00007FFC000000FFF000001FFC0000074
:100830000FFC0000007FE0000007F807FF803FC0CA
:10084000000003F81FFFF00F80000001FC7FFFFC99
:100850000700000000FFFFFFFF00000000007FFF17
:10086000FFFF80000000003FFC007FC00000000090
:100870001FE0001FE0000002000FC00007E0008042
:10088000078007C00001C003C00FC003E3FF800062
:100890000FE00FF001FFFFE0001FE01FFC00FFFF73
:1008A000F0007FE01FFF007FFFF801FFF01FFF80D7
:1008B0003F83F807FFE007FFE01E00F00FFFC003D3
:1008C000FFF80800003FFF0000FFFE000000FFFCF3
:1008D00000003FFF000001FFF800000FFFC0FE070F
:1008E000FFE0000007FFC1FF07FF80000001FFC31A
:1008F000FF87FF000000007F83FF87FC00000000EF
:100900003F83FF83F8000000003F83FF83F800006F
:1009100000003F83FF83F8000000007F83FF87FC17
:1009200000000001FFC3FF87FE00000003FFC1FFBE
:1009300007FF8000000FFFC0FE07FFE000003FFF41
:10094000000003FFF80000FFFE000000FFFC0001B4
:10095000FFF80000003FFF0007FFE00000000FFF6E
:10096000C01FFFC003838007FFE01FFF0007FFC019
:1009700001FFF01FFC0007FFC0007FF00FF0000F29
:10098000FFE0001FE00FE0000FFFE0000FE0078036
:10099000001FFFF00003C00600003FFFF0000080D2
:1009A0000000003FFFF80000000000007FFFFC0097
:1009B00000000000007FFFFC000000000000FFFFBF
:1009C000FE000000000001FFFFFE0000000000012B
:1009D000FFFFFF000000000003FFFFFF000000001A
:1009E0000003FFFFFF800000000007FFFFFFC000C3
:1009F00000000007FFFFFFC0000000000FFFFFFF27
:100A0000E0000000001FFFFFFFE0000000001FFFEC
:100A1000FFFFF0000000001FFFFFFFE000000000EC
:100A200007FFFFFFC00000000001FFFFFF00000004
:100A30000000003FFFF800000000000001FE000081
:100A4000000000000000000000000000000FFC009B
:100A5000000000007FFF8000000003FFFFF00000A7
:100A6000000FF003FC0000001F80007E0000007EED
:100A700000001F800000F8000007C00001F0000027
:100A800003E00003C0000000F000078000000078D1
:100A900000070000000038000F000000003C001EAE
:100AA000000000001E001C000000000E003C0000C2
:100AB00000000F00380000000007003800000000B0
:100AC00007807000000000038070000000000380B9
:100AD00070000000000380E00000000001C0E000A2
:100AE00000000001C0E00000000001C0E0000000C4
:100AF0000001C0E00000000001C000000A0B020974
:100B00000C0D0E08070304010000000000000000A7
:100B100000000000000000000000000000000000D5
:100B20000000000000001211100000000000000092
:100B300000000000000000000000000000000000B5
:100B400001021020200808102040102040800201DF
:100B500002010804020101020408102040808040C4
:100B600020100804020180040201804020100804C3
:100B70000201080402010102040810204080010261
:100B80000408102040800505050507050808080829
:100B9000020202020A0A0808040404040101010115
:100BA0000101010103030303030303030407070710
:100BB0000C0C0C0C0C0C0C0C0202020206060606B5
:100BC000060606060B0B0B0B0B0B0B0B0000200095
:100BD0002300260029002C002F0032000001000015
:100BE00003010601090100002200250028002B0056
:100BF0002E003100340002010000050108010B0144
:100C000000002100240027002A002D0030003300BE
:100C100001010000040107010A01350E650FF30F01
:100C20002511B6116A155A25DC257B2D11241FBE0E
:100C3000CFEFD1E2DEBFCDBF00E00CBF14E0A0E0FB
:100C4000B2E0E4EDFCE600E00BBF02C007900D92BD
:100C5000A63CB107D9F72CE0A6ECB4E001C01D9288
:100C6000A430B207E1F71CE0CCE2DCE000E006C013
:100C700022970109FE010BBF0E945136CA31D107EC
:100C800080E00807A9F70E942C300C946836B8C998
:100C90002F923F924F925F926F927F928F929F928C
:100CA000AF92BF92CF92DF92EF92FF920F931F937A
:100CB000CF93DF9300D01F92CDB7DEB74C017C837A
:100CC0006B836A015901C8018701AC014C195D09A8
:100CD00057FF03C051954195510995016B817C8166
:100CE000261B370B37FF03C031952195310922248C
:100CF0002394312C2417350714F0212C312C211486
:100D0000310459F03A2D2B2D5C01832F922F3B811A
:100D10002C81DC82CB82C32ED22EAB81BC81AA1661
:100D2000BB065CF43C2D2D2D6C01832F922F3B8153
:100D30002C81BC82AB82A32EB22E2501EB81FC81DB
:100D40004E1A5F0A3C016C187D0877FE03C071944F
:100D500061947108720157FE03C0FFEFEF1AFF0A9A
:100D6000F594E794C816D9062CF421E030E03A83D4
:100D7000298324C06FEF7FEF7A8369831FC0D4017A
:100D8000ED91FC910480F581E02D9801211431044E
:100D9000D9F04B815C81B601C4011995E618F708BA
:100DA000F7FE06C0E981FA81CE0EDF1EE40CF51CC9
:100DB0002B813C812F5F3F4F3C832B836B817C8158
:100DC000A616B706E4F604C0A6016B817C81E4CFC9
:100DD0000F900F900F900F90DF91CF911F910F9177
:100DE000FF90EF90DF90CF90BF90AF909F908F904B
:100DF0007F906F905F904F903F902F9008956F92EB
:100E00007F928F929F92AF92BF92CF92DF92EF929A
:100E1000FF920F931F93CF93DF93EC015B016A0165
:100E200039014801E881F9810284F385E02D8701C9
:100E30001995E881F981A601480D591D41505109C4
:100E40000284F385E02D9301B501CE011995E88167
:100E5000F9810084F185E02D9401A601B501CE0150
:100E60001995E881F981B501660D771D6150710909
:100E70000084F185E02D9401A601CE011995DF9142
:100E8000CF911F910F91FF90EF90DF90CF90BF9087
:100E9000AF909F908F907F906F900895EF92FF9208
:100EA0000F931F93DC01ED91FC91240F351F21500E
:100EB00031090680F781E02D780189019B011995A0
:100EC0001F910F91FF90EF900895EF92FF920F9373
:100ED0001F93DC01ED91FC91260F371F2150310942
:100EE0000680F781E02D78018A0119951F910F91F5
:100EF000FF90EF9008956F927F928F929F92AF92A2
:100F0000BF92CF92DF92EF92FF920F931F93CF93F6
:100F1000DF935C014A0169013801EB01C60ED71E5F
:100F2000CC15DD0574F4D501ED91FC910084F185BB
:100F3000E02D87019301A401BE01C50119952196F9
:100F4000EFCFDF91CF911F910F91FF90EF90DF9046
:100F5000CF90BF90AF909F908F907F906F900895AB
:100F6000EF92FF920F931F93DC01ED91FC9111978B
:100F70001A960D911C911B9718962D913C911997DB
:100F80000684F785E02D7B0140E050E060E070E0F2
:100F900019951F910F91FF90EF9008950895FC010E
:100FA000138212828DE892E091838083758364833B
:100FB000578346837187608753874287158A1586D2
:100FC00014861786168621E0248B8FEF9FEF938B74
:100FD000828B918B808B268B178A08952F923F925C
:100FE0004F925F926F927F928F929F92AF92BF9239
:100FF000CF92DF92EF92FF920F931F93CF93DF93E5
:10100000CDB7DEB728970FB6F894DEBF0FBECDBFC1
:101010005C011B015C834B8329013701C8010796E2
:1010200097FD07969C01B3E035952795BA95E1F7B2
:101030003A832983812C912CE12CF12CE614F704BE
:101040000CF048C018861F82AB81BC81AE0DBF1D5D
:10105000BE83AD832F813885201731079CF5EF8142
:10106000F885F7FD3796A3E0F595E795AA95E1F7A2
:10107000E80DF91DE40DF51DE491F0E08F819885F0
:1010800087709927A0E8B0E002C0B595A7958A952A
:10109000E2F7EA23FB23EF2B79F0D501ED91FC91E8
:1010A0000480F581E02D96014D815E816F81788508
:1010B000620D731DC5011995EF81F8853196F8878A
:1010C000EF83C8CF3FEFE31AF30A89819A81880E34
:1010D000991EB4CF28960FB6F894DEBF0FBECDBFD1
:1010E000DF91CF911F910F91FF90EF90DF90CF9004
:1010F000BF90AF909F908F907F906F905F904F9038
:101100003F902F9008952F923F924F925F926F924F
:101110007F928F929F92AF92BF92CF92DF92EF9287
:10112000FF920F931F93CF93DF93CDB7DEB72C972A
:101130000FB6F894DEBF0FBECDBF9C878B873A01F8
:1011400018870F83FA86E986CD82DC0118968D9187
:101150009C911997681779070CF09EC01A968D918B
:101160009C911B97481759070CF096C08C2C912C1A
:10117000CB01B6E0CB9E800D911D112418161906E7
:101180000CF08AC0C401E3E0880F991FEA95E1F7EB
:10119000840F951F181619060CF07EC0AB85BC8510
:1011A00057968C91811103C0203B08F02F5F5B01A3
:1011B0006B011C8254E8452E51E0552E461A570A01
:1011C000B5E02B9F400C511C1124EC81E53031F02F
:1011D000F201EA0DFB1D24912B8301C01B827A8250
:1011E000698213011E823B8130FF13C0AB85BC8531
:1011F000ED91FC91BD81B13031F40480F581E02D99
:101200002F81388519C00684F785E02DEF80F8849A
:101210001EC0E985FA852F813885E217F307F9F0BA
:10122000AB85BC85ED91FC91BD81B13059F4048052
:10123000F581E02D29853A85A101B5018B859C8535
:1012400019950DC00684F785E02DE984FA848401A0
:10125000940149815A81B6018B859C851995EB8152
:10126000E695EB83FE81FF5FFE8329813A81280D9D
:10127000391D3A8329833FEF231A330AF83009F0E6
:10128000B2CF4C814F5F4C83C80CD91C8FEFA81A8A
:10129000B80A463009F099CF2C960FB6F894DEBF05
:1012A0000FBECDBFDF91CF911F910F91FF90EF90B7
:1012B000DF90CF90BF90AF909F908F907F906F9076
:1012C0005F904F903F902F900895CF92EF92FF92B2
:1012D0000F931F93CF93DF93EC01262F6A3049F4CD
:1012E0002C898E859F8538E0239F800D911D1124C8
:1012F00031C06D3099F1EA88FB88088919894E85DB
:101300005F856C857D85CC88FEDE2C89422F50E080
:101310008C859D8536E0239F800D911D11249D872E
:101320008C872E892223D1F06AEF64039001659F98
:10133000300D112468857985260F371F2817390746
:101340006CF4F3E0440F551FFA95E1F78E859F8505
:10135000840F951F9F878E871D861C8681E090E0F5
:10136000DF91CF911F910F91FF90EF90CF90089553
:10137000FC0175876487578746870895611101C00E
:1013800061E0FC01648B0895FC01738B628B718BAF
:10139000608B0895FC01718B608B538B428B089599
:1013A000FC01668B0895EF92FF920F931F93DC016F
:1013B000ED91FC9111971A960D911C911B9718961F
:1013C0002D913C9119970684F785E02D7B0140E033
:1013D00050E060E070E019951F910F91FF90EF9041
:1013E000089520915C0B222399F03FB7F894209147
:1013F0005C0B213059F42DB320935A0B4DB320913F
:101400005B0B209524232DBB3FBF02C030935A0BAA
:101410008CBD9DBD089580915C0B882361F09FB7C2
:10142000F89420915C0B80915A0B213019F48DBBFC
:101430009FBF08958FBF0895EF92FF920F931F9360
:10144000CF93DF931F92CDB7DEB77C01062F142F09
:1014500040EA50E060E870E02983A1DD85EA92E08F
:10146000F7019183808302A313A3298124A381E040
:10147000818F16A215A20F90DF91CF911F910F912E
:10148000FF90EF900895FC01818D882339F06EBDA7
:1014900000000DB407FEFDCF8EB5089588E090E002
:1014A00030E8A28DB38D27A1432F462321F04C9124
:1014B000422B4C9304C04C91209524232C93A48D53
:1014C000B58D2C9140A5242B2C93A48DB58D4C91DA
:1014D00020A5209524232C933695019711F7089584
:1014E0000F931F93CF93DF931F92CDB7DEB78C017D
:1014F0008091C6049091C704698373DFD8019096E8
:10150000ED91FC91919790819A968C919A97809504
:10151000892380835E96ED91FC915F9790819996E7
:101520008C918095892380836981C801ACDFD801C3
:101530005E96ED91FC915F97808199969C91892BA5
:1015400080830F90DF91CF911F910F9164CF66231D
:1015500011F061E201C060E2C3CF0F931F93CF93FC
:10156000DF931F92CDB7DEB78C018091C6049091B6
:10157000C704698336DFD8019096ED91FC9191976D
:1015800080819A969C919A97892B80835E96ED91A3
:10159000FC915F97908199968C91809589238083A7
:1015A0006981C80170DFD8015E96ED91FC915F976B
:1015B000808199969C91892B80830F90DF91CF91A8
:1015C0001F910F9128CFAF92BF92CF92DF92EF92EF
:1015D000FF920F931F93CF93DF937C01EB01219632
:1015E000FB01B490BB2009F433C0FE016491C70134
:1015F00077DF6E01F2E0CF0ED11CFE013196C4916F
:101600008C2F8078A82ECF778601DC2FDC0DD017A9
:1016100039F0F8016491C701A0DF0F5F1F4FF7CFCA
:10162000C6018C0F911DEC01AA2081F08C010F5F87
:101630001F4FFC01649170E06F3F710511F464EF7E
:1016400071E080E090E00E94B130E801BA94CACF26
:10165000DF91CF911F910F91FF90EF90DF90CF908E
:10166000BF90AF9008950F931F93CF93DF93EC013A
:101670008B011CA61BA661E08BA10E94853261E054
:101680008AA10E9485324AA150E0FA01EA57F44F3C
:10169000E491F0E0EE0FFF1FEA51F44F8591949131
:1016A0009F8F8E8F2BA130E0F901EA57F44F849180
:1016B00090E0880F991F8A51944FFC018591949175
:1016C00099A388A3FA01E05CF44F449149A7F9017A
:1016D000E05CF44F24912AA7898D882349F00E9469
:1016E000702B80E58093C60481E08093C7043DC0E1
:1016F00061E08EA10E94853261E08DA10E94853259
:101700004EA150E0FA01EA57F44FE491F0E0EE0FF9
:10171000FF1FEA51F44FA591B491BD8FAC8F2DA15D
:1017200030E0F901EA57F44F849190E0880F991F57
:101730008A51944FFC01859194919B8F8A8FFA0175
:10174000E05CF44F449148A7F901E05CF44F249128
:101750002FA38C9198A5909589238C93EA8DFB8D6E
:1017600090818FA1809589238083EE8DFF8D90815C
:1017700089A58095892380838CA1882309F161E064
:101780000E94853261E08CA10E94BE3264EF71E05C
:1017900080E090E00E94B13060E08CA10E94BE32F7
:1017A00064EF71E080E090E00E94B13061E08CA1D4
:1017B0000E94BE3264EF71E080E090E00E94B130A0
:1017C0000115110539F0B801CE01DF91CF911F91BC
:1017D0000F91F9CEDF91CF911F910F9108951F9333
:1017E000CF93DF93EC01162F66ED76E03CDF11110D
:1017F00008C069EC76E0CE01E6DE82E08BA781E0EE
:101800000DC0113069F480E890E09B878A876FEA09
:1018100076E0CE01D8DE82E08BA783E08CA704C0FF
:101820006CEB76E0CE01CFDE64E876E0CE01CBDE75
:10183000123031F466E3CE0153DE60ECCE018DDE72
:10184000188FDF91CF911F910895EF92FF920F9320
:101850001F93CF93DF931F921F92CDB7DEB77C010A
:10186000162F6AE229834A833BDE60E0C70175DEFA
:10187000F70163A5610FC70170DE60E0C7016DDE8F
:10188000F70163A52981620FC70167DE6BE2C7011B
:1018900027DE60E0C70161DEF70164A54A81640FBD
:1018A000C7015BDE60E0C70158DEF70164A5600F89
:1018B000C70153DE6CE2C7010F900F90DF91CF910B
:1018C0001F910F91FF90EF900BCEEF92FF920F932D
:1018D0001F93CF93DF931F92CDB7DEB77C01122FFA
:1018E00077FD4BC0DC011896ED91FC9119976E17AE
:1018F0007F070CF042C057FD40C01A96ED91FC9155
:101900001B974E175F07CCF501E0040F21E0260F6F
:1019100039839BDF8091C6049091C70462DDD701B3
:101920009096ED91FC91919780819A969C919A97CF
:10193000892B80835E96ED91FC915F9790819996BB
:101940008C918095892380833981632FC7019BDD2A
:10195000612FC70198DDD7015E96ED91FC915F97ED
:10196000808199969C91892B80830F90DF91CF91F4
:101970001F910F91FF90EF904ECD0F90DF91CF917F
:101980001F910F91FF90EF900895DF92EF92FF92D9
:101990000F931F93CF93DF93EC017901D02E8885AD
:1019A0009985681779070CF042C08A859B8548178E
:1019B00059070CF03CC09A012E0D3F1D821793076A
:1019C0001CF47C01E41AF50A0FEF040F0E0D262F0C
:1019D000CE013BDF8091C6049091C70402DDE8A1EF
:1019E000F9A180819AA5892B8083EE8DFF8D90814E
:1019F00089A5809589238083E114F10451F0612F3A
:101A0000CE0141DD6D2DCE013EDD81E0E81AF10809
:101A1000F3CFEE8DFF8D808199A5892B8083DF9197
:101A2000CF911F910F91FF90EF90DF90F4CCDF9159
:101A3000CF911F910F91FF90EF90DF900895DF926B
:101A4000EF92FF920F931F93CF93DF93EC017901F5
:101A5000D02E88859985681779070CF042C02A85B1
:101A60003B85421753070CF03CC09B012E0D3F1DD8
:101A7000821793071CF47C01E61AF70A2FEF260F52
:101A80002E0D042FCE01E1DE8091C6049091C70493
:101A9000A8DCE8A1F9A180819AA5892B8083EE8D2D
:101AA000FF8D908189A5809589238083E114F104BD
:101AB00051F0612FCE01E7DC6D2DCE01E4DC81E039
:101AC000E81AF108F3CFEE8DFF8D808199A5892B5F
:101AD0008083DF91CF911F910F91FF90EF90DF9066
:101AE0009ACCDF91CF911F910F91FF90EF90DF90F3
:101AF0000895AF92BF92CF92DF92EF92FF920F9331
:101B00001F93CF93DF93EC01690158012885398534
:101B1000621773070CF057C08A859B8548175907D1
:101B20000CF051C0FB01EC0DFD1D2E173F071CF4FE
:101B30006901C61AD70A9A012A0D3B1D821793071D
:101B40001CF45C01A41AB50A0FEF040F0A0D2FEF65
:101B5000260F2C0DCE0179DE8091C6049091C7042A
:101B600040DCE8A1F9A180819AA5892B8083EE8DC4
:101B7000FF8D908189A58095892380831A141B0489
:101B80008CF48601101611064CF46F2DCE017BDC0F
:101B90006E2DCE0178DC01501109F4CF81E0A81A36
:101BA000B108ECCFEE8DFF8D808199A5892B8083C4
:101BB000DF91CF911F910F91FF90EF90DF90CF9029
:101BC000BF90AF9028CCDF91CF911F910F91FF90E4
:101BD000EF90DF90CF90BF90AF9008951F93CF9379
:101BE000DF93EC01162F66E37BDC612F63706D8B56
:101BF000888D623081F06330F9F0613031F08230ED
:101C000011F460EC0DC068EC0BC0823011F460EA96
:101C100018C068EA16C0823011F460E001C068E0C4
:101C2000CE019BDC80E890E099878887288D213061
:101C3000B1F080EA90E013C0823011F460E601C098
:101C400068E6CE018ADC888D813019F480E890E066
:101C500002C080EA90E09987888780E890E09B87BF
:101C60008A87DF91CF911F91089580E58093C60404
:101C70001092C7040895E091C804662361F0A9ECAE
:101C8000B4E040E04E1739F02D913D912817390707
:101C9000D9F04F5FF7CF21E02E0F2093C804F0E07A
:101CA000EE0FFF1FE753FB4F9183808369EB72E0D8
:101CB0008EE59BE00E94FC2D4AE050E06091C80454
:101CC0008EE59BE00C94D42E0895CF93C0E08091D4
:101CD000C804C81760F4EC2FF0E0EE0FFF1FE753C5
:101CE000FB4F0190F081E02D1995CF5FF0CFCF91A0
:101CF00008958EBD00000DB407FEFDCF8EB508958A
:101D000061E0809106020E94853260E080910402C9
:101D10000C948532CF92DF92EF92FF921F93CF9374
:101D2000DF931F92CDB7DEB78091F1049091F2045A
:101D300058DB42988CE0DDDF8FEFDBDFC82ED12C43
:101D4000E12CF12C8FEFD5DF182F8FEFD2DF429AE5
:101D5000898361DBB60155274427512B8981482BA4
:101D6000962F852F742F662720E031E040E050E069
:101D70000E9425362850394845405109CA01B90109
:101D80000E9423342FE130E844ED5BE30E941035DC
:101D90000E94F0330F90DF91CF911F91FF90EF9051
:101DA000DF90CF900895CF92DF92EF92FF921F9332
:101DB000CF93DF931F92CDB7DEB78091F10490915E
:101DC000F2040FDB429884E094DF8FEF92DFC82E9D
:101DD000D12CE12CF12C8FEF8CDF182F8FEF89DFC6
:101DE000429A898318DBB60155274427512B8981F4
:101DF000482B962F852F742F662720E031E040E096
:101E000050E00E9425362758344545405109CA0103
:101E1000B9010E94233421E23DEF4BE95AE30E94CD
:101E200010350E94F0330F90DF91CF911F91FF90FA
:101E3000EF90DF90CF900895CF92DF92EF92FF92D4
:101E40001F93CF93DF931F92CDB7DEB78091F1043C
:101E50009091F204C6DA429884E04BDF8FEF49DFBD
:101E6000C82ED12CE12CF12C8FEF43DF182F8FEFF0
:101E700040DF429A8983CFDAB60155274427512B98
:101E80008981482B962F852F742F662720E031E01B
:101E900040E050E00E94253627583445454051091E
:101EA000CA01B9010E94233429E237E34BE15AE326
:101EB0000E9410350E94F0330F90DF91CF911F9157
:101EC000FF90EF90DF90CF9008958CE58093F10420
:101ED0001092F2040895CF93DF93EC01862F68836C
:101EE000198291E09A832E873F87488B598B60E057
:101EF0000E94853288810E94F3328B839A819923D4
:101F000021F091E0811190E09B830E9482306E83EA
:101F10007F83888799872B812C831D826A877B87A3
:101F20008C879D87DF91CF910895CF92DF92EF92BA
:101F3000FF920F931F93CF93DF93EC010E948230A7
:101F40006093F4047093F5048093F6049093F7047F
:101F500088810E94F3328093F3049A81992329F0B7
:101F600091E0811190E09093F3044091F40450913A
:101F7000F5046091F6047091F7040A851B852C85A1
:101F80003D856A017B01C01AD10AE20AF30A0E8577
:101F90001F85288939899B81C016D106E206F30680
:101FA00038F44E835F83688779871D82892F12C03A
:101FB0009C838091F3048B834E835F83688779874A
:101FC000891739F04A875B876C877D8791E09D830D
:101FD00001C01D82DF91CF911F910F91FF90EF9073
:101FE000DF90CF90089524EF31E040E050E066E2CA
:101FF0008AE095E070DF24EF31E040E050E067E2F6
:1020000088EF94E068CF26E040E052EC61E070E0B9
:102010008EE59BE00E94B12C63EC72E08EE59BE0C4
:102020000E94072E0E9407240E94602569ED72E03D
:102030008EE59BE00C94072E3ED747CECF93DF93DF
:10204000EC013D832C83798368835B834A838E8193
:102050009F810196A1F088859985019681F02F3F97
:102060008FEF380761F061E0822F0E94853261E0D6
:1020700088810E94853261E08A810E9485321B86B8
:102080001A861E861F86188A198A8FEF90E09D8710
:102090008C878AE090E09B8B8A8BDF91CF910895AB
:1020A0002FEF3FEF4FEF5FEF6FEF7FEFC7CF613065
:1020B0002FEF720714F461E07FEF6F3F710519F0A5
:1020C00014F06FEF70E0FC017387628777FF03C045
:1020D000719561957109FC0184810C946F31EF92C7
:1020E000FF920F931F93CF93DF931F92CDB7DEB76D
:1020F0007C018901FC016683778340875187808159
:1021000049830E94BE324981642FF70182810E9477
:10211000BE32B801C7010F90DF91CF911F910F918F
:10212000FF90EF90C4CF1F93CF93DF9364EE72E0E4
:102130008EE59BE00E94072E8091AA0A8823C9F0B1
:102140008FE495E008D1EC0180EA9AE00E94C7256F
:10215000182F80EA9AE00E94B2259E0136952795B5
:1021600036952795412F50E0682F70E080E395E089
:10217000B6DF8091A90A8823E1F08AE495E0EBD0EC
:10218000EC018AE99AE00E94C725182F8AE99AE0B3
:102190000E94B2259E013695279536952795412FA9
:1021A00050E0682F70E08CE195E0DF91CF911F91B6
:1021B00096CFDF91CF911F910895FC018285938581
:1021C000089581E08093AA0A8CE180935B028DE1FF
:1021D00080935A028CE28093570260E088E20E946A
:1021E000853260E089E20E9485322CE230E04DE1E8
:1021F00050E06CE170E080E395E020DF61E083E98E
:1022000090E139CD81E08093A90A8EE18093590253
:102210008FE1809358028DE28093560260E08AE25B
:102220000E94853260E08BE20E9485322DE230E030
:102230004FE150E06EE170E08CE195E0FFDE61E09F
:1022400083E990E118CDBDDFDDCF80E395E028DFA5
:102250008CE195E025CFCF92DF92EF92FF92CF9362
:10226000DF930E9482306B017C0180914405909144
:102270004505A0914605B0914705A7019601281B89
:10228000390B4A0B5B0B283C31054105510518F40D
:102290001092490525C083E10E94F332892BB9F0E1
:1022A000C0924405D0924505E0924605F09247055C
:1022B00081E0809349056EEE72E08EE59BE0DF9150
:1022C000CF91FF90EF90DF90CF900C94072E10925B
:1022D000490581E40E944A31EC018431910518F4EA
:1022E0001092480531C06BEF72E08EE59BE00E94D2
:1022F000FC2D4AE050E0BE018EE59BE00E94E92EF5
:10230000CE018F5B9109879710F481E013C0CE0155
:1023100082589140879710F482E00CC0CE018A5415
:102320009240879710F483E005C0C553D340A79728
:1023300058F484E080934805C0924405D092450546
:10234000E0924605F0924705DF91CF91FF90EF9024
:10235000DF90CF900895CF93DF93EC0188810E94A6
:102360004A319A838983DF91CF91089589E08093E0
:102370004F0586E090E090935305809352052AE044
:1023800020934A0590934E0580934D050895089536
:102390000895089508950895089501978A30910544
:1023A00008F0A8C08E589F4FFC010C944136E09174
:1023B000110202C0E0911002F0E0EE0FFF1FEE5E8E
:1023C000FD4F6081718183E69AE00C94FC2DE091D1
:1023D0000F02F0E0EE0FFF1FEE5CFD4F6081718198
:1023E00083E69AE00E94FC2D6EE074E07FC0E091ED
:1023F0005B05F0E0EE0FFF1FE25BFD4F6081718136
:1024000075C080915A05811103C064E173E06EC00C
:1024100067E173E06BC06AE173E083E69AE00E94D3
:10242000FC2DE0911102F0E0EE0FFF1FEE58FB4F84
:1024300040915F055091600580819181489F900196
:10244000499F300D589F300D1124B901882777FD21
:102450008095982F293E334064F122C06EE173E0ED
:1024600083E69AE00E94FC2DE0911002F0E0EE0F6E
:10247000FF1FEE58FB4F40915C0550915D05808138
:102480009181489F9001499F300D589F300D112434
:10249000B901882777FD8095982F293E33404CF06D
:1024A0000E94233420E030E04AE754E40E9488335D
:1024B00002C00E94233422E030E0AB01BC0183E67D
:1024C0009AE00C94D52F62E273E083E69AE00E94D2
:1024D000FC2D4AE050E060910E0283E69AE00C94F5
:1024E000D42E67E273E002C06CE273E083E69AE008
:1024F0000C94072E0895AB01BC0183E69AE00C947E
:10250000CA09CF93C82F40E050E060E078EF83E63F
:102510009AE00E94CA094CE250E0CC23A9F16DE791
:1025200070E083E69AE00E94B8098CE195E045DE10
:102530004AE050E0BC0183E69AE00E94AB2E6DE2D7
:1025400074E083E69AE00E94FC2D40E450E06DE7E1
:1025500070E083E69AE00E94B809609122057091CC
:1025600023054AE050E083E69AE00E94AB2E4AE45D
:1025700050E06DE770E083E69AE00E94B809609150
:1025800024057091250534C06DE270E083E69AE081
:102590000E94B80980E395E010DE4AE050E0BC01FB
:1025A00083E69AE00E94AB2E6DE274E083E69AE047
:1025B0000E94FC2D40E450E06DE270E083E69AE07A
:1025C0000E94B80960913605709137054AE050E0E5
:1025D00083E69AE00E94AB2E4AE450E06DE270E0A0
:1025E00083E69AE00E94B809609138057091390538
:1025F0004AE050E083E69AE0CF910C94AB2E8F92A4
:102600009F92AF92BF92CF92DF92EF92FF920F9381
:102610001F93CF93DF93C82F40E050E060E078EF46
:1026200083E69AE00E94CA09CC2359F00E94332520
:10263000EC0184E99AE00E940C2BC817D90709F035
:10264000F0C00E942E25EC0187E99AE00E940C2B35
:10265000C817D90709F4E4C1E091630AF091640A4C
:10266000C681D7810E942E25865A9F4FBC0188279C
:1026700077FD8095982F0E94233423EC35EF48E4B2
:1026800050E40E94103520E030E044E353E40E941F
:1026900088330E9485334B015C010E942E25865AA7
:1026A0009F4FBC01882777FD8095982F0E94233487
:1026B00023EC35EF48E450E40E94103520E030E090
:1026C00044E353E40E9488330E9473356B017C011C
:1026D00020E030E040EA51E4C501B4010E94103529
:1026E00020E030E046E952E40E941D330E94F033BE
:1026F0004B015C0120E030E040EA51E4C701B60143
:102700000E94103520E030E040E252E40E941D3388
:102710000E94F033E12CF12C84019B014BE450E04A
:1027200068E270E083E69AE0FE011995E091630AA1
:10273000F091640AC681D78187E99AE00E940C2B48
:10274000865A9F4FBC01882777FD8095982F0E945D
:10275000233423EC35EF48E450E40E94103520E0A8
:1027600030E044E353E40E9488330E9485334B01F8
:102770005C0187E99AE00E940C2B865A9F4FBC01AE
:10278000882777FD8095982F0E94233423EC35EF1E
:1027900048E450E40E94103520E030E044E353E484
:1027A0000E9488330E9473356B017C0120E030E089
:1027B00040EA51E4C501B4010E94103520E030E048
:1027C00046E952E40E941D330E94F0334B015C0144
:1027D00020E030E040EA51E4C701B6010E94103524
:1027E00020E030E040E252E40E941D330E94F033CA
:1027F00050EEE52E57E0F52E84019B014BE450E0AE
:1028000068E270E083E69AE0FE01199544E550E045
:1028100062E370E083E69AE00E94B80987E99AE0F3
:10282000E4C0E091630AF091640AC681D7810E94F6
:102830003325865A9F4FBC01882777FD8095982FB6
:102840000E94233423EC35EF48E450E40E94103515
:1028500020E030E044E353E40E9488330E94853353
:102860004B015C010E943325865A9F4FBC0188278B
:1028700077FD8095982F0E94233423EC35EF48E4B0
:1028800050E40E94103520E030E044E353E40E941D
:1028900088330E9473356B017C0120E030E040EA10
:1028A00051E4C501B4010E94103520E030E046E952
:1028B00052E40E941D330E94F0334B015C0120E082
:1028C00030E040EA51E4C701B6010E94103520E033
:1028D00030E040EF52E40E941D330E94F033E12CBF
:1028E000F12C84019B014BE450E068E770E083E643
:1028F0009AE0FE011995E091630AF091640AC6819D
:10290000D78184E99AE00E940C2B865A9F4FBC0124
:10291000882777FD8095982F0E94233423EC35EF8C
:1029200048E450E40E94103520E030E044E353E4F2
:102930000E9488330E9485334B015C0184E99AE050
:102940000E940C2B865A9F4FBC01882777FD8095EB
:10295000982F0E94233423EC35EF48E450E40E9482
:10296000103520E030E044E353E40E9488330E94B5
:1029700073356B017C0120E030E040EA51E4C50191
:10298000B4010E94103520E030E046E952E40E9494
:102990001D330E94F0334B015C0120E030E040EA3F
:1029A00051E4C701B6010E94103520E030E040EF4D
:1029B00052E40E941D330E94F033E0EEEE2EE7E079
:1029C000FE2E84019B014BE450E068E770E083E653
:1029D0009AE0FE01199544E550E062E870E083E674
:1029E0009AE00E94B80984E99AE00E940C2B4AE020
:1029F00050E0BC0183E69AE00E94AB2E6DE274E0E9
:102A000083E69AE0DF91CF911F910F91FF90EF90B5
:102A1000DF90CF90BF90AF909F908F900C94FC2D43
:102A2000DF91CF911F910F91FF90EF90DF90CF90AA
:102A3000BF90AF909F908F9008958091AA0A8823AD
:102A400019F080E05EDD06C08091A70A882311F0AE
:102A500080E0D5DD8091A90A882311F081E051CD75
:102A60008091A60A882311F081E0C9CD0895CF9303
:102A7000DF93E901E42FF0E0EE0FFF1FEE58FB4F6C
:102A800020813181442737FD4095542F0E942536FF
:102A9000CE01AA2797FDA095BA2F280F391F4A1FEC
:102AA0005B1F88E790E08C1B9D0BAA2797FDA095E4
:102AB000BA2F281739074A075B0744F027E730E0A9
:102AC0002C1B3D0B442737FD4095542FC901DF9146
:102AD000CF9108952FE241E360E383E69AE00C94FE
:102AE0001C0AEF92FF920F931F938EE30E944A31CC
:102AF000863722E0920754F08A3A22E092074CF09F
:102B0000803F92404CF42AE030E008C020E030E002
:102B100005C025E030E002C02EE030E0EE24EA946B
:102B2000A7E0FA2E06E010E045E050E06DE870E026
:102B300083E69AE00E94790D1F910F91FF90EF902C
:102B40000895EF92FF920F931F9360E078EF83E672
:102B50009AE00E94C40943E050E06EE570E083E62D
:102B60009AE00E94B809E12CF12C07E010E023E282
:102B700030E043E050E06EE570E083E69AE00E94CA
:102B8000790D8DE30E944A312AE0AC01249FC001F7
:102B9000259F900D1124BC01882777FD8095982FE3
:102BA0000E94233420E030E845EA53E40E94883351
:102BB000AB01BC0122E030E083E69AE01F910F9167
:102BC000FF90EF900C94D42FEF92FF920F931F93EE
:102BD000E12CF12C00E710E020EA30E04EE050E07C
:102BE00060E070E083E69AE00E94790D1F910F91FA
:102BF000FF90EF900895CF92DF92EF92FF920F93A4
:102C00001F9360E078EF83E69AE00E94C409DCDF5E
:102C10008091AA0A882309F447C048E150E062E0A5
:102C200070E083E69AE00E94B80961E373E083E60E
:102C30009AE00E94072E4CE250E062E070E083E6EA
:102C40009AE00E94B8096CE373E083E69AE00E9480
:102C5000072E46E350E062E070E083E69AE00E94CF
:102C6000B80962E473E083E69AE00E94072E40E42C
:102C700050E062E070E083E69AE00E94B8096BE4FD
:102C800073E083E69AE00E94072E4AE450E062E097
:102C900070E083E69AE00E94B80963E573E083E69A
:102CA0009AE00E94FC2D33C08091A70A882379F115
:102CB00048E150E062E070E083E69AE00E94B809E3
:102CC0006BE573E083E69AE00E94072E00EEC02ECB
:102CD000DD24DA9489E1E82EF12C02E310E02BE404
:102CE0003AE042E350E06FE070E083E69AE00E9451
:102CF000EE0744E550E062E070E083E69AE00E946F
:102D0000B80966E673E083E69AE00E94072E809198
:102D1000A90A882309F44CC048E150E062E570E05C
:102D200083E69AE00E94B8096FE673E083E69AE0D2
:102D30000E94072E4CE250E062E570E083E69AE0E4
:102D40000E94B8096CE373E083E69AE00E94072EC4
:102D500046E350E062E570E083E69AE00E94B8093D
:102D600062E473E083E69AE00E94072E40E450E0BC
:102D700062E570E083E69AE00E94B8096BE473E0D4
:102D800083E69AE00E94FC2D4AE450E062E570E0A0
:102D900083E69AE00E94B80963E573E083E69AE06F
:102DA0001F910F91FF90EF90DF90CF900C94FC2D2E
:102DB0008091A60A8823A9F148E150E062E570E01D
:102DC00083E69AE00E94B8096AE773E083E69AE036
:102DD0000E94072EB0EECB2EDD24DA9419E1E12E0D
:102DE000F12C02E310E02BE43AE042E350E06FE51F
:102DF00070E083E69AE00E94EE0744E550E062E569
:102E000070E083E69AE00E94B80966E673E083E624
:102E10009AE01F910F91FF90EF90DF90CF900C946C
:102E2000072E1F910F91FF90EF90DF90CF900895A4
:102E30000E94C427E0DE8DE195E190930A02809321
:102E4000090208950E945825D6DE8DE195E1909300
:102E50000A028093090208950E944825CCDE8DE184
:102E600095E190930A028093090208950E94382503
:102E7000C2DE8DE195E190930A02809309020895E4
:102E8000E2D9B9DE8DE195E190930A0280930902BF
:102E90000895B8D9B0DE8DE195E190930A02809350
:102EA000090208958ED9A7DE8DE195E190930A027B
:102EB0008093090208950F931F93CDD980914805FF
:102EC00090914905811102C09923E1F021E02093FE
:102ED0000802992351F078DE82E892E290930A0288
:102EE00080930902109254050DC0833021F4809123
:102EF00054058F5F05C0813029F4809154058150BD
:102F000080935405E0910902F0910A02199580918D
:102F10000802882319F08150809308020E948230B1
:102F2000009156051091570520915805309159058B
:102F300008531F4F2F4F3F4F061717072807390712
:102F400060F4CFDDFEDD0E94823060935605709301
:102F5000570580935805909359051F910F91089537
:102F6000CF93DF93EC0180914805843089F4809100
:102F7000090290910A028C179D0751F025DE82E02C
:102F800080930802D0930A02C0930902109254055C
:102F9000DF91CF910895CF93DF93EC0180910902E7
:102FA00090910A028C179D0751F00EDE82E080930B
:102FB0000802D0930A02C093090210925405DF91CF
:102FC000CF910895EF92FF920F931F93CF93DF93CA
:102FD000EE24EA94FE2C09E010E020EA30E040E024
:102FE00050E060E070E083E69AE00E94790D61E0D5
:102FF00083E69AE00E94BE09E12C28EFF22E28E237
:1030000030E040E050E060E070E083E69AE00E944B
:10301000790D6FEF7FEF83E69AE00E94C40900E02C
:1030200010E0C0E0D0E041E050E0B80183E69AE073
:103030000E94B80980910B029E01280F311DC90121
:103040002B3031050CF00A97A8D960E078EF83E6C1
:103050009AE00E94C4092196075D1F4FC430D10534
:1030600011F7DF91CF911F910F91FF90EF9008958D
:10307000EF92FF920F931F93CF93DF93ECD82091A1
:103080004805222309F4A8C1223061F420910B02E3
:10309000822F90E00A9714F081E00BC02F5F2093FD
:1030A0000B0293C1243051F480910B02823020F442
:1030B0008AE080930B0289C18150FBCF822F8D7FE4
:1030C000813009F089C180910B0290E0FC013197B9
:1030D000E930F10508F079C1E458FF4F0C9441360E
:1030E00080911102233049F410926105882309F47C
:1030F0006CC181508093110268C1893018F48F5FD0
:103100008093110280911102893009F05EC182E042
:10311000809361051AC080911002233049F4109207
:103120005E05882309F451C18150809310024DC17E
:103130008F3018F48F5F80931002809110028F30CF
:1031400009F043C182E080935E05E12CF12C07E792
:1031500010E020EA30E040E050E060E070E083E61C
:103160009AE00E94790D31C180910F02233029F439
:103170008D3008F02AC18F5F04C0882309F425C16F
:10318000815080930F0221C180915B05233029F487
:10319000882309F41AC1815004C0833008F015C196
:1031A0008F5F80935B0511C180915A05813019F4BE
:1031B00010925A050AC181E080935A0506C1809198
:1031C0005F0590916005C2E4D0E0AE01481B590B49
:1031D00069E970E083E69AE0233099F40E94B80927
:1031E00060E070E083E69AE00E94C4096EEA83E63C
:1031F0009AE00E94FD2D80915F05909160050197F6
:1032000012C00E94B80960E070E083E69AE00E9474
:10321000C4096EEA83E69AE00E94FD2D80915F0565
:103220009091600501969093600580935F05AE01D3
:10323000481B590B69E970E083E69AE00E94B809DF
:1032400060EE77E043C080915C0590915D05C2E43B
:10325000D0E0AE01481B590B69E970E083E69AE0C3
:10326000233099F40E94B80960E070E083E69AE0A8
:103270000E94C4096EEA83E69AE00E94FD2D8091C7
:103280005C0590915D05019712C00E94B80960E04D
:1032900070E083E69AE00E94C4096EEA83E69AE051
:1032A0000E94FD2D80915C0590915D0501969093A3
:1032B0005D0580935C05AE01481B590B69E970E020
:1032C00083E69AE00E94B80960EE7FEF83E69AE019
:1032D0000E94C4096EEA83E69AE00E94FD2D75C043
:1032E00080910E02233011F4815001C08F5F8093D2
:1032F0000E026BC0E0910F02F0E0EE0FFF1FEE5CDC
:10330000FD4F608171818EE59BE00E94FC2D65E898
:1033100073E08EE59BE00E94072EC0E0D0E010EA4B
:1033200080916205DE01189FA00DB11D1124AA0F26
:10333000BB1FAD59BA4FE0911102F0E0EE0FFF1F35
:10334000EE58FB4F2D913C9180819181289FB001D7
:10335000299F700D389F700D11244AE050E08EE5D2
:103360009BE00E94AB2E6EE274E08EE59BE00E9433
:10337000FC2D8091620590E00196189FF001199F45
:10338000F00D1124EC0FFD1FEE0FFF1FED59FA4F4A
:10339000A0911002B0E0AA0FBB1FAE58BB4F208116
:1033A00031818D919C91289FB001299F700D389F8C
:1033B000700D11244AE050E08EE59BE00E94B22E91
:1033C0002196C03AD10509F0ABCFDF91CF911F9183
:1033D0000F91FF90EF90F6CDDF91CF911F910F915C
:1033E000FF90EF900895AF92BF92DF92EF92FF921D
:1033F0000F931F93CF93DF931F92CDB7DEB78B014F
:10340000F42ED22E2AE0829F500111248EE0A80EC5
:10341000B11CA50162E070E083E69AE00E94B80961
:103420006F2D83E69AE00E94FD2D3AE1F801649148
:10343000611128C02AEF2303C0011124BC016C557F
:103440007F4FE12CF12C0AE010E028E930E0A501E3
:1034500083E69AE00E94790DA50168E970E083E6B1
:103460009AE00E94B8096D2D83E69AE00F90DF91F3
:10347000CF911F910F91FF90EF90DF90BF90AF9091
:103480000C94FD2D3323B1F283E69AE039830E9438
:10349000FD2D0F5F1F4F39813150C8CF0F931F9300
:1034A000CF93DF9340915405242F332727FD309588
:1034B0008091550590E02817390714F4409355057D
:1034C000D091550511E080914805823009F010E057
:1034D000C0E002E080915405D11124C0909108020F
:1034E0009923B1F0811108C060E078EF80E090E0AE
:1034F00002D82FEA4EE308C060E070E080E098EF69
:103500000E947B122FEA40E26FE577E08C2F6BDFA1
:10351000112309F459C080915405811155C087EBDE
:103520009BE125C0D13041F5909108029923B9F073
:10353000813049F460E078EF80E090E00E947B12F7
:103540002FEA4EE308C060E070E080E098EF0E9450
:103550007B122FEA40E268E577E08C2F44DF1123ED
:1035600099F180915405813079F582E09BE1DF91FA
:10357000CF911F910F910FCDD23031F5909108026C
:103580009923B9F0823049F460E078EF80E090E070
:103590000E947B1220E24EE308C060E070E080E011
:1035A00098EF0E947B1220E240E269E477E08C2FE2
:1035B0001ADF112349F080915405823029F4DF91FC
:1035C000CF911F910F9134CC8091540583303CF002
:1035D00000930802109254051092550506C087FF0B
:1035E00005C00093080200935405D0E0CF5FDF5F71
:1035F000CB3009F06FCF82E892E2DF91CF911F913B
:103600000F91AECC0F931F93CF93DF93409154054E
:10361000242F332727FD30958091550590E02817FA
:10362000390714F440935505D091550511E0809168
:103630004805823009F010E0C0E002E080915405B6
:10364000D11127C0909108029923B9F0811109C0C6
:1036500060E078EF80E090E00E947B1220E24EE391
:1036600008C060E070E080E098EF0E947B1220E2EA
:1036700040E261E477E08C2FB6DE112309F459C0F3
:1036800080915405811155C0DF91CF911F910F9109
:10369000EDCBD13031F5909108029923B9F081300A
:1036A00049F460E078EF80E090E00E947B1220E235
:1036B0004EE308C060E070E080E098EF0E947B126B
:1036C00020E240E269E377E08C2F8DDE112389F15F
:1036D00080915405813069F5DF91CF911F910F9151
:1036E000BBCBD23031F5909108029923B9F08230EA
:1036F00049F460E078EF80E090E00E947B1220E2E5
:103700004EE308C060E070E080E098EF0E947B121A
:1037100020E240E26DE277E08C2F65DE112349F074
:1037200080915405823029F4DF91CF911F910F9140
:1037300089CB8091540583303CF0009308021092AD
:1037400054051092550506C087FF05C00093080276
:1037500000935405D0E0CF5FDF5FCB3009F06ECF30
:103760008EE49AE1DF91CF911F910F91F9CB0F93E6
:103770001F93CF93DF9340915405242F332727FDC8
:1037800030958091550590E02817390714F440933F
:103790005505D091550511E080914805823009F01A
:1037A00010E0C0E002E080915405D11127C0909153
:1037B00008029923B9F0811109C060E078EF80E038
:1037C00090E00E947B1220E24EE308C060E070E0CF
:1037D00080E098EF0E947B1220E240E265E277E011
:1037E0008C2F01DE112309F459C0809154058111F9
:1037F00055C0DF91CF911F910F9154CBD13031F54E
:10380000909108029923B9F0813049F460E078EF93
:1038100080E090E00E947B1220E24EE308C060E06E
:1038200070E080E098EF0E947B1220E240E26DE1C0
:1038300077E08C2FD8DD112389F1809154058130F8
:1038400069F5DF91CF911F910F9123CBD23031F5E4
:10385000909108029923B9F0823049F460E078EF42
:1038600080E090E00E947B1220E24EE308C060E01E
:1038700070E080E098EF0E947B1220E240E261E17C
:1038800077E08C2FB0DD112349F080915405823010
:1038900029F4DF91CF911F910F91F2CA80915405C5
:1038A00083303CF0009308021092540510925505A5
:1038B00006C087FF05C00093080200935405D0E0BE
:1038C000CF5FDF5FCB3009F06ECF8EE49AE1DF91FE
:1038D000CF911F910F9144CB0F931F93CF93DF9301
:1038E000C0E0D0E009E010E02FEF3FEFA801BE01FB
:1038F00083E69AE00E94650CBBDB0C5E1F4F01382B
:10390000110591F72FEF3FEF4FE750E0BE0183E63F
:103910009AE00E94650C2296C23AD10519F700E0A0
:1039200010E0C9E0D0E02FEF3FEFAE01B80183E631
:103930009AE00E94650C9CDB2296C138D10599F76C
:103940000C5E1F4F043B110561F7C2E4D0E080918B
:103950005F0590916005AE01481B590B69E970E065
:1039600083E69AE00E94B80960EE77E083E69AE089
:103970000E94C4096EEA83E69AE00E94FD2D8091C0
:103980005C0590915D05AE01481B590B69E970E03B
:1039900083E69AE00E94B80960EE7FEF83E69AE042
:1039A0000E94C4096EEA83E69AE0DF91CF911F91ED
:1039B0000F910C94FD2DCF93DF93CDB7DEB7A59774
:1039C0000FB6F894DEBF0FBECDBF60E070E083E6B7
:1039D0009AE00E94D30960E078EF83E69AE00E94C3
:1039E000C40960E083E69AE00E94D00963E083E6C0
:1039F0009AE00E94BE0944E150E06FE070E083E687
:103A00009AE00E94B80967E973E083E69AE00E94B1
:103A1000FC2D46E450E06AE070E083E69AE00E9404
:103A2000B80962E083E69AE00E94BE096FE973E09C
:103A300083E69AE00E94FC2D0E94800E64EF71E004
:103A400080E090E00E94B13060E070E083E69AE0B0
:103A50000E94D30961E083E69AE00E94BE093CDF40
:103A6000B1DA6DE3A62EB12C75E4C72ED12C80916E
:103A70005B05823041F480910F0290910C028630F8
:103A800008F472C0F1C20E9482302B013C01809187
:103A90000D0281110AC000915F05109160054091EF
:103AA00011024DA30E948A0E0EC040911002009197
:103AB0005C0510915D054DA3493018F40E94D30EAA
:103AC00002C00E941C0F98014DA10E9437158C0165
:103AD00080910D0281110AC0E0905F05F0906005B1
:103AE000409111024DA30E948A0E0EC04091100217
:103AF000E0905C05F0905D054DA3493018F40E94FC
:103B0000D30E02C00E941C0F97014DA10E943715D1
:103B10007C0190915A0580910E02911108C090E0AD
:103B2000E816F90664F00E151F054CF4A4CF90E0DA
:103B30008E159F0524F0E016F1060CF49CCF98DA60
:103B400080915B05823009F496CF8111D9C40E941F
:103B500082306419750986099709653671058105F2
:103B6000910508F4CDC487CF992309F4BCC4909182
:103B70006205911104C092E09093620502C0109218
:103B80006205811144C00E94823000E010E050EADA
:103B9000952EE0906205F12C60905F0570906005B5
:103BA000409111024DA30E948A0E93014DA10E94E3
:103BB00037159E9CF0019F9CF00D1124E00FF11F22
:103BC000EE0FFF1FED59FA4F918380830F5F1F4F58
:103BD000003A1105F1F68091620590E0019640E40B
:103BE00051E0849F9001859F300D949F300D1124EA
:103BF0002D593A4F80E090E0F901E80FF91F11824A
:103C000010820296803401E09007B1F72FC1813015
:103C100009F04CC00E94823000E010E030EA732EC0
:103C20004091100280905C0590905D05E0906205E7
:103C3000F12C493038F42FEFE21AF20A4DA30E941A
:103C4000D30E06C03FEFE31AF30A4DA30E941C0FE8
:103C500094014DA10E9437157E9CF0017F9CF00DD0
:103C60001124E00FF11FEE0FFF1FED59FA4F918362
:103C700080830F5F1F4F003A110591F64091620556
:103C800080E491E0489F9001499F300D11242D5907
:103C90003A4F80E090E0F901E80FF91F118210829D
:103CA0000296803441E09407B1F7E0C0823009F019
:103CB00053C00E94823000E010E0B0EA7B2EE0901A
:103CC0006205F12C80905F05909060054091110293
:103CD0004DA30E948A0E94014DA10E9437157E9C2F
:103CE000F0017F9CF00D1124E00FF11FEE0FFF1F7C
:103CF000ED59FA4F918380834091100280905C05CA
:103D000090905D05E0906205F12C493038F45FEF4A
:103D1000E51AF50A4DA30E94D30E06C06FEFE61A0E
:103D2000F60A4DA30E941C0F94014DA10E94371565
:103D30007E9CF0017F9CF00D1124E00FF11FEE0F2F
:103D4000FF1FED59FA4F918380830F5F1F4F003A99
:103D5000110509F0B4CF8AC08CE0EDE5F2E0DE0198
:103D6000119601900D928A95E1F70E9482300E948F
:103D70008E302B013C0180910F02E1E0F0E0EC0F6E
:103D8000FD1F74E0879FE00DF11D11243C97808199
:103D90009181A281B38189A39AA3ABA3BCA300E0C4
:103DA00010E060EA362E0E948E30A3019201261B9D
:103DB000370B480B590BDA01C90149A15AA16BA174
:103DC0007CA184179507A607B70768F3440E551E14
:103DD000661E771EE0906205F12C80905F05909042
:103DE0006005409111024DA30E948A0E94014DA1DD
:103DF0000E9437153E9CF0013F9CF00D1124E00F0E
:103E0000F11FEE0FFF1FED59FA4F91838083409110
:103E1000100280905C0590905D05E0906205F12CA9
:103E2000493038F45FEFE51AF50A4DA30E94D30E2E
:103E300006C06FEFE61AF60A4DA30E941C0F94010C
:103E40004DA10E9437153E9CF0013F9CF00D1124BE
:103E5000E00FF11FEE0FFF1FED59FA4F91838083A2
:103E60000F5F1F4F003A110509F09DCF8091620549
:103E7000882319F000E010E002C002E010E00E9488
:103E80008E3080E491E0089F1001099F300C189F4C
:103E9000300C1124C1018D599A4F1C01812C912C99
:103EA00066246394712C230191E0491A5108809192
:103EB0006105823009F45EC0F101E80DF91D8281CF
:103EC000938120915F0530916005D501A21BB30B52
:103ED000A817B907BCF0A091630AB091640A8601E3
:103EE000081B190B80819181A601481B590B16965E
:103EF000ED91FC911797E12CF12C9301B20183E62F
:103F00009AE01995E0916205B0EABE9FF001112494
:103F1000DF01A60DB71DAA0FBB1FAD59BA4F8D917A
:103F20009C9120915F05309160058501021B130B68
:103F300008171907FCF0A091630AB091640A860182
:103F4000081B190BE40DF51DEE0FFF1FED59FA4F7D
:103F500080819181A601481B590B1696ED91FC9129
:103F6000179790EEE92E97E0F92E9301B20183E6C0
:103F70009AE0199580915E05823009F467C0C1010D
:103F8000880D991DFC01EE5BFE4F2081318140912F
:103F90005C0550915D05B501641B750B62177307D5
:103FA000CCF0E091630AF091640A8601021B130BC6
:103FB000DC01A05CBE4F8D919C91A601481B590B62
:103FC0000680F781E02DE12CF12C9301B20183E60C
:103FD0009AE019958091620590E0019670EA789FC9
:103FE000F001799FF00D1124DF01A60DB71DAA0F76
:103FF000BB1FAD59BA4F8D919C9120915C053091BA
:104000005D05D501A21BB30BA817B907FCF0A09161
:10401000630AB091640A8601081B190BE40DF51DB3
:10402000EE0FFF1FED59FA4F80819181A601481BC9
:10403000590B1696ED91FC91179760EEE62EFF2432
:10404000FA949301B20183E69AE0199511D8BFEF73
:104050006B1A7B0A02E0800E911C10EA6116710453
:1040600009F021CF05D83DC2992309F43CC28091C3
:10407000620581112CC0E3E6F5E023EE37E083EA28
:1040800096E063E279E041915191D9014D935D93BE
:104090009D01DC014D915D91CD01DB014D935D935F
:1040A000BD01B6E0E33AFB0771F780E2E9E6F2E032
:1040B000DE01119601900D928A95E1F70E948230FF
:1040C0000E948E301B012C01812C912C21C0E3EE2B
:1040D000F7E023E635E083E299E063EA76E0419198
:1040E0005191D9014D935D939D01DC014D915D91FD
:1040F000CD01DB014D935D93BD01B9E0E332FB07D8
:1041000071F7D3CF0E94381880910F028630F8F0F3
:104110000E948E3092018101061B170B280B390B70
:10412000B901A80180910F02E1E0F0E0EC0FFD1F62
:1041300014E0819FE00DF11D112478978081918119
:10414000A281B381481759076A077B07D8F280918B
:104150000F02863038F460E070E083E69AE00E9457
:10416000D309BFC1E1E0F0E0EC0FFD1F24E0829F26
:10417000E00DF11D1124789780819181A281B38196
:10418000280E391E4A1E5B1E0E948E30920181014C
:10419000061B170B280B390BB901A80180910F02E0
:1041A000E1E0F0E0EC0FFD1F14E0819FE00DF11D58
:1041B0001124789780819181A281B381841795071A
:1041C000A607B70720F40E948E301B012C018091B6
:1041D0000C02811104C021E0821A91087AC1009179
:1041E000620510E0E0905F05F090600540911102DB
:1041F0004DA30E948A0E97014DA10E94371530EA07
:10420000309FF001319FF00D1124E80DF91DEE0FE4
:10421000FF1FED59FA4F9183808340911002E09087
:104220005C05F0905D050091620510E00F5F1F4F87
:104230004DA3493068F40E94D30E97014DA10E940E
:10424000371540EA409FF001419FF00D11240CC04A
:104250000E941C0F97014DA10E94371550EA509FF4
:10426000F001519FF00D1124E80DF91DEE0FFF1F15
:10427000ED59FA4F9183808362E0861691040CF425
:1042800028C180916205882319F0612C712C03C02C
:1042900022E0622E712C80916105823009F472C097
:1042A00070EA769DF001779DF00D1124DF01A80DD5
:1042B000B91DAA0FBB1FAD59BA4F8D919C9120918A
:1042C0005F0530916005D501A21BB30BA817B90794
:1042D000FCF0A091630AB091640A8601081B190BD7
:1042E000B40161507109E60FF71FEE0FFF1FED5982
:1042F000FA4F80819181A601481B590B1696ED91CA
:10430000FC911797E12CF12C940183E69AE0199522
:10431000E0916205B0EABE9FF0011124DF01A80D13
:10432000B91DAA0FBB1FAD59BA4F8D919C91209119
:104330005F05309160058501021B130B08171907F3
:104340000CF1A091630AB091640A8601081B190B55
:10435000B40161507109E60FF71FEE0FFF1FED5911
:10436000FA4F80819181A601481B590B1696ED9159
:10437000FC911797A0EEEA2EA7E0FA2E940183E6AF
:104380009AE0199580915E05823009F479C01FEF9B
:10439000611A710A20EA269DF001279DF00D112473
:1043A000DF01A80DB91DAA0FBB1FAD59BA4F8D91E2
:1043B0009C9120915C0530915D05A501421B530B3A
:1043C00048175907FCF0A091630AB091640A86016E
:1043D000081B190BB40161507109E60FF71FEE0FAE
:1043E000FF1FED59FA4F80819181A601481B590B9F
:1043F0001696ED91FC911797E12CF12C940183E630
:104400009AE019958091620590E0019650EA589FD4
:10441000F001599FF00D1124DF01A80DB91DAA0F5D
:10442000BB1FAD59BA4F8D919C9120915C05309185
:104430005D05B501621B730B681779070CF1A0913C
:10444000630AB091640A8601081B190BB40161501C
:104450007109E60FF71FEE0FFF1FED59FA4F80812C
:104460009181A601481B590B1696ED91FC91179767
:1044700090EEE92EFF24FA94940183E69AE01995D0
:1044800080FE0AC0C40164E170E00E94F035892B0F
:1044900001F509E010E010C009E010E02FEF3FEF58
:1044A000A801B40183E69AE00E94650C0C5E1F4FE0
:1044B0000138110599F7E6CF2FEF3FEFA801B401BE
:1044C00083E69AE00E94650C0E5F1F4F01381105CC
:1044D00099F77FEF871A970A80EA881691040CF4FF
:1044E00017CEFAD902C00E94381880915B0583303C
:1044F00019F410920C02BBCA81E080930C02B7CA77
:104500008701E6CAFF920F931F93CF93DF934091E9
:104510005405242F332727FD30958091550590E0D1
:104520002817390714F440935505D091550511E02B
:1045300080914805823009F010E0C0E002E0E7E039
:10454000FE2E80915405D11126C090910802992326
:10455000C1F0811109C060E078EF80E090E00E9436
:104560007B122FEA4EE308C060E070E080E098EF35
:104570000E947B122FEA40E264EC77E08C2F0E94CD
:10458000F319112309F426C180915405811122C128
:104590008EE49AE118C1D13039F59091080299233F
:1045A000C1F0813049F460E078EF80E090E00E9453
:1045B0007B122FEA4EE308C060E070E080E098EFE5
:1045C0000E947B122FEA40E26CEB77E08C2F0E9476
:1045D000F319112309F4FEC080915405813009F0CC
:1045E000F9C087EC91E1EFC0D23029F59091080233
:1045F0009923C1F0823049F460E078EF80E090E0E8
:104600000E947B1220E24EE308C060E070E080E090
:1046100098EF0E947B1220E240E26AEA77E08C2F5A
:104620000E94F319112309F4D5C0809154058230FA
:1046300009F0D0C0C0D9D33039F590910802992340
:10464000C1F0833049F460E078EF80E090E00E94B0
:104650007B122FEA4EE308C060E070E080E098EF44
:104660000E947B122FEA40E261EA77E08C2F0E94E1
:10467000F319112309F4AEC080915405833009F079
:10468000A9C088EC91E19FC0D43039F5909108021F
:104690009923C1F0843049F460E078EF80E090E045
:1046A0000E947B122FEA4EE308C060E070E080E0D9
:1046B00098EF0E947B122FEA40E263E977E08C2FAB
:1046C0000E94F319112309F485C0809154058430A8
:1046D00009F080C089EC91E176C0D53039F5909130
:1046E00008029923C1F0853049F460E078EF80E05A
:1046F00090E00E947B122FEA4EE308C060E070E079
:1047000080E098EF0E947B122FEA40E26AE777E0B0
:104710008C2F0E94F319112309F45CC08091540579
:10472000853009F057C08AEC91E14DC0D63029F5AB
:10473000909108029923C1F0863049F460E078EF47
:1047400080E090E00E947B122FEA4EE308C060E018
:1047500070E080E098EF0E947B122FEA40E263E76E
:1047600077E08C2F0E94F3191123A1F18091540559
:10477000863081F58BEC91E126C0D73059F59091C8
:1047800008029923C1F0873049F460E078EF80E0B7
:1047900090E00E947B122FEA4EE308C060E070E0D8
:1047A00080E098EF0E947B122FEA40E266E677E015
:1047B0008C2F0E94F319112369F0809154058730E2
:1047C00049F48CEC91E1DF91CF911F910F91FF9013
:1047D0000C94CB178091540588303CF0009308026C
:1047E000109254051092550506C087FF05C000932E
:1047F0000802F0925405D0E0CF5FDF5FCB3009F0C4
:10480000A0CEDF91CF911F910F91FF900895CF928D
:10481000DF92EF92FF920F931F9361E080E30E947B
:10482000853262E083E69AE00E94EF0B61E083E666
:104830009AE00E94EE0D61E083E69AE00E94D009C2
:1048400060E070E083E69AE00E94D309FFE1CF2E9A
:10485000D12CA7E4EA2EF12C07E410E02CEC37E091
:104860004DE250E06DE270E083E69AE00E94EE07D0
:1048700064EF71E080E090E00E94B13060E070E0B1
:1048800083E69AE00E94D30961E083E69AE00E9401
:10489000BE096FEF77E083E69AE00E94C40943E027
:1048A00050E060E070E083E69AE00E94B8096CEAAC
:1048B00073E083E69AE00E94FC2D0FEF17E02FE0F3
:1048C00030E044E050E06CE870E083E69AE00E945B
:1048D0001F0D28E030E044E050E06BE970E083E633
:1048E0009AE00E94C50C0FEF1FEF24E030E046E095
:1048F00050E06CE970E083E69AE00E94C50C24E089
:1049000030E046E050E06DE970E083E69AE00E9416
:10491000C50C0FEF17E02FE030E04BE050E06CE803
:1049200070E083E69AE00E941F0D27E030E044E04B
:1049300050E06CE870E083E69AE00E94C50C0E94AB
:10494000711543E050E066E470E083E69AE00E946F
:10495000B80962EB73E083E69AE00E94FC2D1F9198
:104960000F91FF90EF90DF90CF900C94A115AF9234
:10497000BF92CF92DF92EF92FF920F931F9362E963
:1049800074E08EE59BE00E94072E8091A70A8823A1
:1049900041F187E99AE040D69093930A8093920A76
:1049A0008FE495E00E94AB11BC0180E090E01F9283
:1049B0001F921F922AEA2F93A12CB12C6501EE249D
:1049C000EA9413E0F12E00E010E020E030E0A901CD
:1049D0000E94E52F87E99AE09FD50F900F900F90E6
:1049E0000F908091A60A882381F184E99AE014D679
:1049F0009093910A8093900A8AE495E00E94AB110B
:104A0000BC0180E090E01F921F921F922AEA2F9330
:104A1000A12CB12C6501EE24EA9413E0F12E00E004
:104A200010E020E030E0A9010E94E52F0F900F90E8
:104A30000F900F9084E99AE01F910F91FF90EF90F3
:104A4000DF90CF90BF90AF9067C51F910F91FF90FF
:104A5000EF90DF90CF90BF90AF9008958091920A31
:104A60009091930A08958091900A9091910A0895E7
:104A700081E08093A70A8CE2809357026CE270E099
:104A800087E99AE011D561E087EB94E20C943B0E44
:104A900081E08093A60A8DE2809356026DE270E079
:104AA00084E99AE001D561E087EB94E20C943B0E37
:104AB000DFDFEECF87E99AE02CD484E99AE029C4BD
:104AC00060E088E20E94853260E089E20E948532DF
:104AD00060E08AE20E94853260E08BE20E948532CB
:104AE00060E08FE30E94853260E080E40E948532BE
:104AF00060E086E20E94853260E087E20E948532B3
:104B000061E08DE00E94853261E08DE00E94853297
:104B100060E083E10E94853260E081E40C9485329C
:104B2000CF93DF93EC01862F688349831A821B821F
:104B300060E00E94853260E089810E948532888130
:104B40000E94F33221E0892B09F420E02C83898133
:104B50000E94F33221E0892B09F420E02D83DF91BC
:104B6000CF910895CF93DF93EC0188810E94F332B7
:104B700021E0892B09F420E02C838B81882319F014
:104B800081E082278C838C81DF91CF910895CF9330
:104B9000DF93EC0189810E94F33221E0892B09F433
:104BA00020E02D838B81882319F081E082278D837B
:104BB0008D81DF91CF91089549E268E280EA9AE021
:104BC000AFDF4BE26AE28AE99AE0AACFEF92FF9266
:104BD0000F931F93CF93DF93EC01842F1B861A86CC
:104BE000198218821E8A1F8A188E198E7F836E83FF
:104BF0004C875D873F872E87198B088BFB8AEA8A53
:104C000061E00E94853261E08E850E94853261E01C
:104C100088890E94853261E08A890E9485321D8AD6
:104C20001C8A84E090E099878887DF91CF911F915B
:104C30000F91FF90EF9008950F931F93CF93DF9301
:104C4000EC018B01888599850297F9F46130710533
:104C500071F02CF461157105C1F460E009C0623097
:104C6000710559F06330710581F460E007C061E0BF
:104C70008C850E94BE3261E005C061E08C850E9497
:104C8000BE3260E08E850E94BE3288859985049789
:104C9000B9F501301105B1F04CF40115110581F59C
:104CA00061E08C850E94BE3260E011C002301105C7
:104CB000B9F00330110521F561E08C850E94BE3208
:104CC00060E013C060E08C850E94BE3261E08E859A
:104CD0000E94BE3261E088890E94BE3260E00DC051
:104CE00060E08C850E94BE3261E08E850E94BE32FB
:104CF00060E088890E94BE3261E08A890E94BE32EB
:104D000088859985059709F073C00A30110508F068
:104D10006FC0F801EB57FF4F0C94413660E08C8573
:104D20000E94BE3261E051C060E08C850E94BE32BC
:104D300061E08E850E94BE3260E04BC060E08C85F1
:104D40000E94BE3261E08E850E94BE3260E088899A
:104D50000E94BE3261E041C060E001C061E08C852C
:104D60000E94BE3261E005C061E08C850E94BE32C7
:104D700060E08E850E94BE3260E009C061E08C85F3
:104D80000E94BE3260E08E850E94BE3261E088895A
:104D90000E94BE3261E00DC061E08C850E94BE328F
:104DA00060E08E850E94BE3261E088890E94BE323A
:104DB00060E08A890E94BE3260E013C061E001C0F9
:104DC00060E08C850E94BE3260E08E850E94BE321B
:104DD00061E088890E94BE3260E08A890E94BE320A
:104DE00061E08C89DF91CF911F910F910C94BE32BD
:104DF000DF91CF911F910F9108954F925F926F9223
:104E00007F928F929F92AF92BF92CF92DF92EF925A
:104E1000FF920F931F93CF93DF93EC01CB0177FFAA
:104E200004C088279927861B970B6C011616170656
:104E30002CF481E090E09983888304C0672B11F003
:104E40001982188204E010E08AE0E82EF12CC114E7
:104E5000D10409F449C00E948E308E889F88A88CA6
:104E6000B98C2B013C01481859086A087B088A80D4
:104E70009B80AC80BD80481459046A047B0458F3BD
:104E80006E8B7F8B888F998F288139818A859B854E
:104E90002130310559F401969B878A872E813F8105
:104EA0008217930771F41B861A860BC0892B21F495
:104EB0008E819F819B878A878A859B8501979B87A7
:104EC0008A8781E0C81AD108288539858A859B851B
:104ED0002530310511F4B70101C0B8010E94F03549
:104EE000BC01CE01A9DEB3CFDF91CF911F910F910D
:104EF000FF90EF90DF90CF90BF90AF909F908F90FA
:104F00007F906F905F904F9008958AE095E00E94A7
:104F1000950F8823E9F06CE974E08EE59BE077D685
:104F200080EA9AE01FDE882319F061E070E007C094
:104F300080EA9AE02CDE882329F06FEF7FEF8BEA7E
:104F40009AE05BDF64E670E080E090E00C94B130C2
:104F500088EF94E00E94950F8823A9F060EA74E03E
:104F60008EE59BE054D680EA9AE0FCDD882319F0B8
:104F70006AE070E0E4CF80EA9AE009DE882311F36A
:104F800066EF7FEFDCCF0895EF92FF920F931F93B0
:104F90001092AA0A1092A90A81E08093A80A60E000
:104FA00088E20E94853260E089E20E94853260E0FA
:104FB00086E20E94853260E087E20E9485329FE1AE
:104FC000E92EF12C0EE110E02DE130E04CE150E053
:104FD00068EC70E08BEA9AE0F9DD2091B10A30913B
:104FE000B20A442737FD4095542F60E077E883E903
:104FF00093E00E942536CA01B9012CE330E040E07D
:1050000050E00E9425362093AD0A3093AE0A4093BB
:10501000AF0A5093B00A61E085E897E21F910F91C3
:10502000FF90EF900C943B0ECF92DF92EF92FF92A5
:105030000F931F93CF93DF936C018B017A01EC01E7
:10504000CA53D54F888187FF04C0FB0111821082AB
:1050500023C02CE02C9DC0012D9D900D1124288192
:10506000AC01420F511D27FD5A952091C50A30E031
:10507000421753078CF42881AC01420F511D27FDC4
:105080005A959A01FA01EE0FFF1FE20FF31FE65344
:10509000F54F208126FD19C088818F5F88838CE0C1
:1050A0008C9D90018D9D300D11248881A901480FA0
:1050B000511D87FD5A958091C50A90E04817590700
:1050C000B4F488818C303CF112C02881820F911D8C
:1050D00027FD9A95FC01EE0FFF1FE80FF91FE6531D
:1050E000F54F808160E08F730E94BE32D5CFF8010A
:1050F00080819181049680349C4918F480E49CE975
:1051000004C0F801808191810496F7019183808326
:105110008FEF888341C0F801808191814881B90176
:10512000640F711D47FD7A95AB01FB01EE0FFF1F68
:10513000E40FF51FE653F54F41815281840F951F0F
:10514000F701918380838881A901480F511D87FD54
:105150005A95FA01EE0FFF1FE40FF51FE653F54FC6
:10516000808186FF19C08881280F311D87FD3A95FF
:10517000F901EE0FFF1FE20FF31FE653F54F808199
:1051800061E08F73DF91CF911F910F91FF90EF90AE
:10519000DF90CF900C94BE32DF91CF911F910F9191
:1051A000FF90EF90DF90CF9008951F920F920FB66F
:1051B0000F9211240BB60F922F933F934F935F934F
:1051C0006F937F938F939F93AF93BF93EF93FF93CF
:1051D00048E850E064E870E081E090E025DFFF916E
:1051E000EF91BF91AF919F918F917F916F915F915F
:1051F0004F913F912F910F900BBE0F900FBE0F90CC
:105200001F9018951F920F920FB60F9211240BB694
:105210000F922F933F934F935F936F937F938F934F
:105220009F93AF93BF93EF93FF9348E950E064E9F6
:1052300070E082E090E0F8DEFF91EF91BF91AF91D6
:105240009F918F917F916F915F914F913F912F919E
:105250000F900BBE0F900FBE0F901F9018951F92CE
:105260000F920FB60F9211240BB60F922F933F930C
:105270004F935F936F937F938F939F93AF93BF935E
:10528000EF93FF9348EA50E064EA70E083E090E037
:10529000CBDEFF91EF91BF91AF919F918F917F9165
:1052A0006F915F914F913F912F910F900BBE0F9097
:1052B0000FBE0F901F9018951F920F920FB60F926E
:1052C00011240BB60F922F933F934F935F936F93DD
:1052D0007F938F939F93AF93BF93EF93FF9348E296
:1052E00051E064E271E080E090E09EDEFF91EF919A
:1052F000BF91AF919F918F917F916F915F914F91EE
:105300003F912F910F900BBE0F900FBE0F901F90EB
:1053100018952091C50A2033A0F431E0320F309364
:10532000C50AFC012083822F90E0FC01EE0FFF1FD5
:10533000E80FF91FE653F54F88EB9BE092838183DA
:1053400008952FEFFC0120830895DF92EF92FF92E2
:105350000F931F93CF93DF93EC01D62E7A0189012F
:105360008881803308F068C061E08D2D0E9485320D
:105370008881A82FB0E0FD01EE0FFF1FEA0FFB1F91
:10538000E653F54F2D2D2F739081907C922B9083B7
:1053900060E272E06E197F0977FF02C06D5F7F4F98
:1053A0007595679575956795698340E659E0401B4B
:1053B000510B57FF02C04D5F5F4F5595479555956F
:1053C00047954A836CE00E94D0359CE0899FB001EC
:1053D000112420E030E0A901460F571FFA01EE0F1B
:1053E000FF1FE40FF51FE653F54F908196FD18C09F
:1053F0002F5F3F4F2C30310571F790E081309105E0
:1054000021F51092800082E0809381001092850047
:1054100010928400B19A80916F00826080936F0037
:10542000888190E0FC01EE0FFF1FE80FF91FE653A3
:10543000F54F8081806480838881DF91CF911F91B7
:105440000F91FF90EF90DF9008958230910569F4FD
:105450001092900082E0809391001092950010923B
:10546000940088BB80937100DBCF8330910569F491
:105470001092A00082E08093A1001092A5001092EB
:10548000A40089BB80937200CBCF892B49F6109280
:10549000200182E0809321011092250110922401C5
:1054A0008ABB80937300BCCF20E639E040E252E033
:1054B0004CCFFC018081803370F5918128E830E089
:1054C000291B310997FD3395220F331F220F331FFC
:1054D000621773077CF0928128E532E0291B3109BD
:1054E00097FD3395220F331F220F331F6217730767
:1054F0000CF49B0122503109220F331F4FB7F8944F
:1055000090E0FC01EE0FFF1FE80FF91FE653F54F87
:10551000328321834FBF08954F925F926F927F92A3
:10552000AF92BF92CF92DF92EF92FF920F931F93B1
:10553000CF93DF93EC01603282E078070CF03FC03C
:1055400077FD06C0653B71052CF064EB70E002C08E
:1055500060E070E0898128E830E0281B310987FD90
:105560003395220F331F220F331F5901CC24B7FC70
:10557000C094DC2C882777FD8095982F2A8148E5F8
:1055800052E0421B510927FD5395440F551F440F0C
:10559000551F2A01662457FC6094762C7F926F92E7
:1055A0005F924F9214EBE12EF12C00E010E020E02E
:1055B00030E0A9010AD50F900F900F900F90CE0107
:1055C000DF91CF911F910F91FF90EF90DF90CF90DF
:1055D000BF90AF907F906F905F904F906ACFFC012B
:1055E00080818F3FB1F090E0FC01EE0FFF1FE80FCC
:1055F000F91FE653F54F8181928143E0880F991F8F
:105600004A95E1F754E0969587955A95E1F7029609
:10561000089580E090E008954F925F926F927F929C
:10562000AF92BF92CF92DF92EF92FF920F931F93B0
:10563000CF93DF9300D01F92CDB7DEB7FC0122815C
:1056400048E552E0421B510927FD5395440F551F71
:10565000440F551F2A01662457FC6094762C418123
:1056600028E830E0241B310947FD3395220F331F12
:10567000220F331F442737FD4095542F29833A8347
:105680004B835C83ACDF0196BC01882777FD809556
:10569000982F1F921F921F92E4EBEF93A12CB12C35
:1056A00065018301720129813A814B815C818DD42E
:1056B0000F900F900F900F90CB010F900F900F90C5
:1056C0000F90DF91CF911F910F91FF90EF90DF909E
:1056D000CF90BF90AF907F906F905F904F90089564
:1056E000CF93CFB7F89480915D0B811123C0EBEB82
:1056F000FBE08491E5E7FBE09491E82FF0E0EE0F0A
:10570000FF1FE050F44FA591B4918C91892319F4B7
:1057100061E085E333D761E085E3F7D68CB580613E
:105720008CBD8CB580648CBD61E084E3EED661E015
:1057300083E3EBD680915D0B8F5F80935D0BCFBFD2
:10574000CF910895FC01818D228D90E0805C9F4F68
:10575000821B91098F7399270895FC01918D828D89
:10576000981731F0828DE80FF11D858D90E0089536
:105770008FEF9FEF0895FC01918D828D981761F056
:10578000828DDF01A80FB11D5D968C91928D9F5F78
:105790009F73928F90E008958FEF9FEF089582E7B7
:1057A0009DE2892B39F080E090E0892B19F09AD1A5
:1057B000811125C080E090E0892B41F080E090E0ED
:1057C000892B21F00E94000081111CC080E090E034
:1057D000892B41F080E090E0892B21F00E940000AD
:1057E000811113C080E090E0892BA1F080E090E06F
:1057F000892B81F00E94000081110AC008950E9447
:105800000000D8CF0E940000E1CF0E940000EACF44
:105810000C9400000895FC01848DDF01A80FB11DD8
:10582000A35ABF4F2C91848D90E001968F739927D6
:10583000848FA689B7892C93A089B1898C918064C3
:105840008C93938D848D981306C00288F389E02D84
:1058500080818F7D80830895CF93DF93EC01888DC5
:105860008823C1F0EA89FB89808185FD05C0A8896C
:10587000B9898C9186FD0EC00FB607FCF5CF8081EB
:1058800085FFF2CFA889B9898C9185FFEDCFCE0134
:10589000C2DFE8CFDF91CF910895CF92DF92FF92E0
:1058A0000F931F93CF93DF931F92CDB7DEB76C0199
:1058B00081E0D60158968C9358975B969C915B97A4
:1058C0005C968C915C97981307C05096ED91FC9173
:1058D0005197808185FD2DC0F601038D10E00F5F8B
:1058E0001F4F0F731127F02EF601848DF81210C090
:1058F0000FB607FCF9CFD6015096ED91FC91519768
:10590000808185FFF1CFC601698385DF6981ECCF96
:10591000838DE80FF11DE35AFF4F6083D6015B963C
:105920000C935B975296ED91FC9153978081806226
:105930000CC0D6015696ED91FC9157976083509616
:10594000ED91FC91519780818064808381E090E0AB
:105950000F90DF91CF911F910F91FF90DF90CF902B
:105960000895BF92CF92DF92EF92FF92CF93DF9391
:10597000EC016A017B01B22EE889F98982E080831B
:10598000411581EE580761057105A1F060E079E0ED
:105990008DE390E0A70196010E9403362150310962
:1059A000410951095695479537952795211580E16D
:1059B000380798F0E889F989108260E874E88EE188
:1059C00090E0A70196010E94033621503109410958
:1059D00051095695479537952795EC85FD85308378
:1059E000EE85FF852083188EEC89FD89B082EA89D7
:1059F000FB89808180618083EA89FB89808188605E
:105A00008083EA89FB89808180688083EA89FB89B9
:105A100080818F7D8083DF91CF91FF90EF90DF9029
:105A2000CF90BF9008951F920F920FB60F9211243E
:105A30000BB60F922F938F939F93EF93FF93E09169
:105A40006E0BF0916F0B8081E091740BF091750BF0
:105A500082FD12C090818091770B8F5F8F732091B0
:105A6000780B821751F0E091770BF0E0E25AF44F97
:105A7000958F8093770B01C08081FF91EF919F916B
:105A80008F912F910F900BBE0F900FBE0F901F9014
:105A900018951F920F920FB60F9211240BB60F920A
:105AA0002F933F934F935F936F937F938F939F9326
:105AB000AF93BF93EF93FF938EE59BE0ACDEFF9136
:105AC000EF91BF91AF919F918F917F916F915F9176
:105AD0004F913F912F910F900BBE0F900FBE0F90E3
